:020000040000FA
:100000000C9461000C9489000C9489000C94890074
:100010000C9489000C9489000C940D0A0C948900AE
:100020000C9489000C9489000C9489000C9489002C
:100030000C9489000C9489000C9489000C9489001C
:100040000C94C3090C9489000C9491090C946B09CD
:100050000C9489000C9489000C9489000C948900FC
:100060000C94240A0C94890000000000250028004C
:100070002B0000000008000201000003040700003C
:1000800000000000000000000000240027002A00FB
:10009000010204081020408001020408102001021F
:1000A00004081020040404040404040402020202EC
:1000B0000202030303030303000102030405430BCD
:1000C000DD1211241FBECFEFD8E0DEBFCDBF13E09D
:1000D000A0E0B1E0EEE2FFE202C005900D92AA328C
:1000E000B107D9F725E0AAE2B3E001C01D92A03123
:1000F000B207E1F710E0C0E6D0E004C02197FE01AE
:100100000E94B716CF35D107C9F70E94DF0B0C94B8
:100110008A170C94000008950895FC01538D448DB6
:10012000252F30E0842F90E0821B930B541710F0A2
:10013000CF96089501970895FC01918D828D9817AF
:1001400061F0A28DAE0FBF2FB11D5D968C91928D87
:100150009F5F9F73928F90E008958FEF9FEF0895B8
:10016000FC01918D828D981731F0828DE80FF11D81
:10017000858D90E008958FEF9FEF0895FC01918D9C
:10018000228D892F90E0805C9F4F821B91098F7395
:1001900099270895FC01A48DA80FB92FB11DA35A6A
:1001A000BF4F2C91848D90E001968F739927848F97
:1001B000A689B7892C93A089B1898C9183708064BA
:1001C0008C93938D848D981306C00288F389E02D5B
:1001D00080818F7D80830895EF92FF920F931F930C
:1001E000CF93DF93EC0181E0888F9B8D8C8D9813EA
:1001F0001AC0E889F989808185FF15C09FB7F894F6
:10020000EE89FF896083E889F98980818370806441
:1002100080839FBF81E090E0DF91CF911F910F918C
:10022000FF90EF900895F62E0B8D10E00F5F1F4F9B
:100230000F731127E02E8C8D8E110CC00FB607FCAA
:10024000FACFE889F989808185FFF5CFCE010E9438
:10025000CA00F1CFEB8DEC0FFD2FF11DE35AFF4FDC
:10026000F0829FB7F8940B8FEA89FB8980818062C6
:10027000CFCFCF93DF93EC01888D8823B9F0AA8983
:10028000BB89E889F9898C9185FD03C0808186FD51
:100290000DC00FB607FCF7CF8C9185FFF2CF8081A0
:1002A00085FFEDCFCE010E94CA00E9CFDF91CF914B
:1002B000089587E194E00E94BE0021E0892B09F4B3
:1002C00020E0822F089580E090E0892B29F00E94A1
:1002D000590181110C9400000895AF92BF92CF9202
:1002E000DF92EF92FF920F931F93CF93DF936C01F6
:1002F0007B018B01040F151FEB015E01AE18BF08D7
:10030000C017D10759F06991D601ED91FC91019088
:10031000F081E02DC6010995892B79F7C501DF91A0
:10032000CF911F910F91FF90EF90DF90CF90BF90F2
:10033000AF90089590E0FC01EE58FF4F2491FC012E
:10034000E057FF4F3491FC01EC55FF4FE491EE2351
:10035000C9F0222339F0233001F1A8F4213019F13A
:10036000223029F1F0E0EE0FFF1FE859FF4FA59171
:10037000B4918FB7F894EC91611126C030953E236B
:100380003C938FBF08952730A9F02830C9F024305E
:1003900049F7809180008F7D03C0809180008F7726
:1003A00080938000DFCF84B58F7784BDDBCF84B5A9
:1003B0008F7DFBCF8091B0008F778093B000D2CF3C
:1003C0008091B0008F7DF9CF3E2BDACFCF93DF93B2
:1003D000EC016091F0048091EF04C130D10549F443
:1003E0000E949A01D093F304C093F204DF91CF915D
:1003F000089591E06927F4CF2091F2043091F3043D
:100400002817390711F00C94E6010895682F8091A0
:10041000B9040E949A018091D1049091D204833052
:10042000910528F0880F991F04970197F1F7089517
:1004300081E00C9406022091B7043091B8044091F9
:10044000B9045091BA042417350721F0682F822F80
:100450000C949A010895CF93DF9390E0FC01E0574C
:10046000FF4F24918C559F4FFC0184918823D1F03C
:1004700090E0880F991FFC01EA57FF4FA591B491B6
:10048000FC01E859FF4FC591D49161110EC09FB78F
:10049000F8948C91E22FE0958E238C932881E223AF
:1004A000E8839FBFDF91CF9108958FB7F894EC91C7
:1004B000E22BEC938FBFF6CF3FB7F8948091730394
:1004C00090917403A0917503B091760326B5A89B13
:1004D00005C02F3F19F00196A11DB11D3FBFBA2FD6
:1004E000A92F982F8827BC01CD01620F711D811D96
:1004F000911D43E0660F771F881F991F4A95D1F71A
:1005000008958F929F92AF92BF92CF92DF92EF9217
:10051000FF926B017C010E945C024B015C01C114E3
:10052000D104E104F104B9F00E945C026819790970
:100530008A099B09683E73408105910580F321E09B
:10054000C21AD108E108F10888EE880E83E0981EEF
:10055000A11CB11CE4CFFF90EF90DF90CF90BF9033
:10056000AF909F908F900895CF92DF92EF92FF927D
:100570000F931F93CF93DF93082FE090F204F09036
:10058000F30481E0E816F10451F490E080E00E9469
:10059000FC0168EC70E080E090E00E94810210E0D5
:1005A000D0E0C0E0680181E0C81AD108C017D107C7
:1005B000C9F081E090E00E94FC0160EA70E080E018
:1005C00090E00E948102CC15DD0554F490E080E0BB
:1005D0000E94FC0160EA70E080E090E00E948102ED
:1005E0002196E4CF81E0E816F10451F490E080E038
:1005F0000E94FC016CE271E080E090E00E948102C8
:10060000C701DF91CF911F910F91FF90EF90DF9085
:10061000CF900C94FC012FB7F89460916F03709108
:10062000700380917103909172032FBF089541155B
:10063000510529F4EAE7F0E080818F7780836A3002
:100640007105B9F0CB01880F991F880F991F80722F
:1006500067706860682B88E10FB6F894A89580935E
:1006600060000FBE60936000E0E6F0E0808180648F
:100670008083232BD9F483B7817F846083BFF89470
:1006800083B7816083BF85B7806685BF8F7D85BF57
:100690007894889583B78E7F83BF7894452B29F40F
:1006A000EAE7F0E0808180688083089583B7817FE6
:1006B000846083BFF89483B7816083BF7894889502
:1006C00083B78E7F83BF7894E9CF20914B03260FA9
:1006D0003327331F21323105ECF420911104FC0142
:1006E00090E080E0243069F082E00895A0914B030F
:1006F0002191AC01455D5C4FA40FB52FB11D2C932A
:100700000196861798F380914B03680F60934B0313
:1007100080E0089581E008951092110481E08093B3
:10072000F0031092EB0361E082E10E949A0161E024
:1007300083E10E949A01E9EBF0E080818E7F808363
:1007400080818D7F808380E28093B80085E48093F0
:10075000BC0008951092A6031092A5031092A8035E
:100760001092CA030E948C038BE890E09093A4033C
:100770008093A3038CE890E09093A2038093A1035D
:100780000895CF93DF9391E090932A038823B9F0E3
:10079000C091B800D091BA008091BC008A7B809350
:1007A000BC0060E082E10E949A0160E083E10E9467
:1007B0009A010E948C03D093BA00C093B800DF91D5
:1007C000CF9108958F929F92AF92BF92CF92DF9276
:1007D000EF92FF920F931F93CF93DF93D82FC62FE3
:1007E000142F613208F09CC00E945C026B017C01F6
:1007F0008091110481116FC081E0809311041093E6
:10080000F0039FEF9093EF031092EE039C0F9093F1
:10081000ED038093EC038091EC03DD0FD82BD09394
:10082000EC038091EB03813009F07CC01092EB0364
:100830000E945C026B017C018091EC038093BB0001
:100840008091130490911404A0911504B0911604A2
:10085000892B8A2B8B2BA1F00E945C020091130440
:100860001091140420911504309116046C197D091F
:100870008E099F09061717072807390708F44CC087
:100880008091BC0083FDD8CF85EC8093BC000E9492
:100890005C026B017C0180911104813009F444C039
:1008A0008091EE038C1710F4C091EE03EBECF3E0B3
:1008B000A1EFB3E080E08C1359C08C2FDF91CF9172
:1008C0001F910F91FF90EF90DF90CF90BF90AF906E
:1008D0009F908F9008958091130490911404A0919B
:1008E0001504B0911604892B8A2B8B2B09F480CF29
:1008F0000E945C028090130490901404A090150450
:10090000B09016046C197D098E099F09861697060A
:10091000A806B90608F06CCF809112040E94C103AA
:10092000C0E0CBCF85EEB1CF809113049091140439
:10093000A0911504B0911604892B8A2B8B2B09F4F6
:10094000AACF0E945C02009113041091140420911C
:100950001504309116046C197D098E099F0906173C
:1009600017072807390708F096CFD6CF91919D93A6
:100970008F5FA1CF8F929F92AF92BF92CF92DF9263
:10098000EF92FF920F931F93CF93DF93D091CA03FF
:10099000D13208F0D7C0182FC091C9030E945C0261
:1009A0006B017C018091110481116BC082E0809306
:1009B00011041093F0038FEF8093EF031092EE0376
:1009C000D093ED03A9EAB3E0EBECF3E080E0D813B9
:1009D00091C01092EC038091EC03CC0FC82BC09314
:1009E000EC038091EB03813009F088C01092EB0397
:1009F0000E945C026B017C018091EC038093BB0040
:100A00008091130490911404A0911504B0911604E0
:100A1000892B8A2B8B2BA1F00E945C02009113047E
:100A20001091140420911504309116046C197D095D
:100A30008E099F09061717072807390708F442C0CF
:100A40008091BC0083FDD8CF85EC8093BC000E94D0
:100A50005C026B017C0180911104823009F450C06A
:100A60008091EF038F3F09F46FC08091EF038032D4
:100A700009F46CC08091EF03803309F469C084E00D
:100A800026C08091130490911404A0911504B09194
:100A90001604892B8A2B8B2B09F484CF0E945C02CD
:100AA0008090130490901404A0901504B090160444
:100AB0006C197D098E099F0986169706A806B90646
:100AC00008F070CF809112040E94C10385E010925B
:100AD000A8031092CA031092A703DF91CF911F9130
:100AE0000F91FF90EF90DF90CF90BF90AF909F90CD
:100AF0008F9008959D9191938F5F69CF85EEA5CFDB
:100B00008091130490911404A0911504B0911604DF
:100B1000892B8A2B8B2B09F49ECF0E945C020091BB
:100B200013041091140420911504309116046C19CB
:100B30007D098E099F09061717072807390708F04E
:100B40008ACFC0CF81E0C3CF80E0C1CF82E0BFCFEA
:100B500083E0BDCFCF93DF93EC018B818823A1F09D
:100B6000888191E09093A7038093C9031092A80312
:100B70001092CA0381E00E94BA0491E0811190E0D2
:100B8000892FDF91CF9108950E94AA0381E08B8382
:100B9000CE010E94AA05982F8111E2CFF1CFA0913A
:100BA000D504B091D60491E09093A70390E490937C
:100BB000C9031092A8031092CA03ED91FC911197FA
:100BC0000190F081E02D682FCD01099581E00E9410
:100BD000BA04882329F081E88093EE0480E0089528
:100BE00081E008951F93CF93DF93EA01122FDC0178
:100BF00011968D919C91DC01ED91FC910280F38125
:100C0000E02D0995C817D90729F4812F0E94BA044D
:100C100091E0811190E0892FDF91CF911F9108958C
:100C20000895E091A6038091A503E81730F4F0E061
:100C3000EF50FC4F808190E008958FEF9FEF089573
:100C40009091A6038091A5032FEF3FEF981748F4EA
:100C5000E92FF0E0EF50FC4F208130E09F5F909350
:100C6000A603C90108958091A5039091A603891B4D
:100C7000990B0895CF92DF92EF92FF920F931F93FB
:100C8000CF93DF937C01CB018A012091A70322231C
:100C900089F0EB016B01C40ED51ECC15DD0569F0A2
:100CA0006991D701ED91FC910190F081E02DC70190
:100CB0000995F3CF642F0E946503C801DF91CF919E
:100CC0001F910F91FF90EF90DF90CF900895CF93F9
:100CD000DF931F92CDB7DEB769832091A70322234C
:100CE000F9F02091CA03203258F021E030E0FC01F5
:100CF0003383228390E080E00F90DF91CF910895BD
:100D00008091A803E82FF0E0E755FC4F998190838C
:100D10008F5F8093A8038093CA0381E090E0ECCFBB
:100D200061E0CE0101960E946503F7CF90E080E07C
:100D300008958EBD00000DB407FEFDCF8EB5089559
:100D400061E08AE00E949A0164E670E080E090E051
:100D50000E94810260E08AE00C949A018F929F9237
:100D6000AF92BF92CF92DF92EF92FF920F931F93B9
:100D7000CF93DF93182F092FC62E41E063E080E464
:100D80000E94E2031092A6038093A5030E940B0326
:100D90004B015C01D12CF12CE12C8091D504909178
:100DA000D604DC01ED91FC910084F185E02D0995DC
:100DB000039724F1C12FD02F8E010D5F1F4F80911B
:100DC000D5049091D604DC01ED91FC910284F38569
:100DD000E02D099589930C171D0789F71092EE04F1
:100DE00081E0DF91CF911F910F91FF90EF90DF9005
:100DF000CF90BF90AF909F908F9008950E940B036B
:100E0000681979098A099B09C616D706E806F90602
:100E100020F682E88093EE0480E0E3CFCF93DF9367
:100E200000D0CDB7DEB789836A838091F6049091B4
:100E3000F704FC01248135812230310590F02081B6
:100E400031E03093A7032093C9031092A8031092B6
:100E5000CA0321E042E050E0BE016F5F7F4F0E9475
:100E6000F2050F900F90DF91CF9108955F926F92EE
:100E70007F928F929F92AF92BF92CF92DF92EF922A
:100E8000FF920F931F93CF93DF93DC011496ED91A4
:100E9000FC911597EF2B09F462C069013A01EC014E
:100EA000888191E09093A7038093C9031092A803CF
:100EB0001092CA0320E041E050E0CD010E94F2050B
:100EC000582E882309F44BC0F12CE12C8C819D8194
:100ED00086010E191F098017910708F48C0141E063
:100EE000C601801B910BE816F90608F440E0602F5C
:100EF00088810E94E2031092A6038093A5038017C5
:100F0000110669F543018E0C9F1C5401C501881917
:100F100099098017910768F489819A81DC01ED9124
:100F2000FC910284F385E02D0995F50181935F0121
:100F3000EDCFE00EF11EEC14FD0440F2852DDF91A3
:100F4000CF911F910F91FF90EF90DF90CF90BF90C6
:100F5000AF909F908F907F906F905F900895512CED
:100F6000EDCFCF93DF9300D0CDB7DEB71A821982D1
:100F7000898322E030E0AE014F5F5F4FBA0180917C
:100F8000F6049091F7040E94360789819A810F90A8
:100F90000F90DF91CF9108951F93CF93DF931F920E
:100FA000CDB7DEB7182F87E10E940E07612F606A68
:100FB00088E10E940E078EE2898321E030E0AE01D5
:100FC0004F5F5F4FBA018091F6049091F7040E9441
:100FD000360789810F90DF91CF911F9108950F936C
:100FE0001F930091BB041091BC042091BD0430916B
:100FF000BE0440E059E06DE370E080E0041715079F
:101000002607370740F476956795579547958F5F84
:101010008630A1F787E0982F906A96958095817029
:101020009CBD8DBD80E01F910F910C940602CF9363
:10103000C82F0E94EF078C2F80620E949906809330
:10104000BF04CF910C94180281EE0E941708809182
:10105000BF040895CF93DF93D82FC62F0E94EF07C8
:101060008D2F80620E9499068093BF048C2F0E946E
:101070009906DF91CF910C9418026091C60461FD2E
:101080000AC062606093C60480E00E942A088CE077
:1010900097E20197F1F70895CF93C82F0E94EF07C9
:1010A0008C2F0E9499068093BF048FEF0E949906AF
:1010B000C82F0E9418028C2FCF9108958F929F9273
:1010C000AF92BF92EF92FF920F931F93CF93DF9354
:1010D0007C010E940B034B015C018FEF0E941708FB
:1010E0008091BF0480FF12C084FD0EC00E940B03DC
:1010F000681979098A099B0960367105810591058E
:1011000060F381E08093CC0480E029C08091CB041F
:10111000C0E0D2E1811107C0C091C004DC2FC3310F
:1011200008F0D2E1CD1B0E94EF0780EA0E949906E9
:101130008093BF048701D15030F0F80181918F0175
:101140000E949906F8CFC15020F080E00E949906D5
:10115000FACF0E94180281E00E941B0281E0DF9119
:10116000CF911F910F91FF90EF90BF90AF909F9004
:101170008F9008950F931F93CF93182FC62F0E941F
:10118000EF07812F80620E9499068093BF040AE0D6
:1011900011E0C15030F0F80181918F010E94990651
:1011A000F8CFCF911F910F910C9418020E94EF0776
:1011B00080E50E9499068093BF0483E70E94990608
:1011C0000C941802FC0180819181009711F00C941D
:1011D00082130895EF92FF920F931F93CF93DF93A3
:1011E000EC017B01198218821B821A821D821C82EB
:1011F000FB0101900020E9F731978F01061B170BC7
:10120000B8016F5F7F4F90E080E00E94BD160097AD
:10121000B9F0998388831B830A832C813D81232B1A
:1012200011F4FC0110821D830C83B7018881998120
:10123000DF91CF911F910F91FF90EF900C94831746
:1012400088819981009711F00E9482131982188277
:101250001D821C821B821A82DF91CF911F910F91F8
:10126000FF90EF90089585ED8093BC00809113046A
:1012700090911404A0911504B09116040796A11D35
:10128000B11D23E0B695A795979587952A95D1F737
:101290002091BC0024FD03C01092110408954091D8
:1012A0001304509114046091150470911604452B99
:1012B000462B472B69F30097A105B10541F025E1C5
:1012C0002A95F1F700000197A109B109E1CF8091BA
:1012D00012040C94C1031F920F920FB60F921124A7
:1012E0002F933F934F935F936F937F938F939F932E
:1012F000AF93BF93EF93FF9387E194E00E94CA00FE
:10130000FF91EF91BF91AF919F918F917F916F91DD
:101310005F914F913F912F910F900FBE0F901F90B3
:1013200018951F920F920FB60F9211242F938F933F
:101330009F93EF93FF93E0912704F091280480811D
:10134000E0912D04F0912E0482FD1BC090818091CC
:1013500030048F5F8F7320913104821741F0E09148
:101360003004F0E0E95EFB4F958F80933004FF91ED
:10137000EF919F918F912F910F900FBE0F901F9023
:1013800018958081F4CF1F920F920FB60F921124FF
:101390002F933F938F939F93AF93BF9380916F034E
:1013A00090917003A0917103B091720330916E031C
:1013B00026E0230F2D3758F50296A11DB11D20936D
:1013C0006E0380936F0390937003A0937103B093A7
:1013D00072038091730390917403A0917503B0918F
:1013E00076030196A11DB11D80937303909374033E
:1013F000A0937503B0937603BF91AF919F918F91A6
:101400003F912F910F900FBE0F901F90189529E8D4
:10141000230F0396A11DB11DD2CF1F920F920FB6BD
:101420000F9211248F930FB6F894A89580916000C5
:10143000886180936000109260000FBE8F910F90C2
:101440000FBE0F901F9018951F920F920FB60F921C
:1014500011242F933F934F935F936F937F938F93B9
:101460009F93AF93BF93EF93FF938091B900887FD1
:10147000803609F44AC0F0F5883209F4A7C018F59F
:10148000803109F49BC0B8F4882309F4F9C088308E
:1014900009F494C0FF91EF91BF91AF919F918F910B
:1014A0007F916F915F914F913F912F910F900FBE60
:1014B0000F901F901895883109F488C0803251F739
:1014C0008093EF0314C0803409F49DC040F480334E
:1014D000B9F38833F9F68093EF0385ECB0C080351B
:1014E00009F485C0883509F496C0883499F60E94BD
:1014F0003309D0CF883909F48CC038F5883729F002
:1015000050F4883611F0803729F683E08093110477
:1015100010926D0357C0883809F47BC0803919F0E8
:10152000803809F0B7CF80916D03803208F071C028
:10153000E0916D0381E08E0F80936D038091BB007D
:10154000F0E0E35BFC4F80833DC0803B39F0E0F48A
:10155000803A09F479C0883A09F09CCF84E08093FE
:10156000110410924C0310924B03E091A303F091ED
:10157000A403099580914B0381110FC081E08093F2
:101580004B0310922B0309C0803C09F4A6CF883C82
:1015900009F4A3CF883B09F07DCFE0914C0381E0B3
:1015A0008E0F80934C03F0E0E55DFC4F80818093CB
:1015B000BB0090914C0380914B0329C08091EC03B8
:1015C0008093BB0085EC8093BC0064CF9091EE03C8
:1015D0008091ED03981758F5E091EE0381E08E0FAE
:1015E0008093EE03F0E0E553FC4F8081E9CFE0917A
:1015F000EE0381E08E0F8093EE038091BB00F0E05C
:10160000E553FC4F80839091EE038091ED03981792
:10161000C8F285E8D8CFE091EE0381E08E0F809389
:10162000EE038091BB00F0E0E553FC4F8083809196
:10163000F00381115CCF81E08093EB0384EA809317
:10164000BC001092110426CF85EC8093BC00109250
:10165000110480916D03803230F4E0916D03F0E06D
:10166000E35BFC4F108260916D0370E0E091A10399
:10167000F091A2038DE493E0099510926D030ACFD7
:101680001092EF0334CFCF93DF93E7E1F4E01382BE
:10169000128288EE93E0A0E0B0E084839583A68375
:1016A000B78326E231E03183208325EC30E03587B3
:1016B000248724EC30E03787268720EC30E0318B1C
:1016C000208B21EC30E0338B228B22EC30E0358B09
:1016D000248B26EC30E0378B268B118E128E138EE6
:1016E000148EE8EFF4E01382128284839583A6833C
:1016F000B78388E391E091838083A4E0B5E01596F9
:10170000FC93EE93149780E690E017969C938E934B
:1017100016971092F7041092F604CFEED4E088E00A
:10172000888381E090E09A8389831E821D8261E034
:1017300088E00E942B028D819E810E94E601E5EDEA
:10174000F4E01382148215821682178A168A158A8B
:10175000148A128213861486158616861786108AB6
:10176000118A128A138A118E108EE5EBF4E086E05E
:1017700090E09383828387E090E09583848380E880
:1017800096E9A8E9B0E086839783A087B18780E2D5
:101790008387128A138A85E0858B81E0868B85E0BA
:1017A00090E0A0E0B0E0848F958FA68FB78F84EB98
:1017B00094E0918380831486DF91CF910895CF9335
:1017C000DF93CDB7DEB72B970FB6F894DEBF0FBE11
:1017D000CDBF789484B5826084BD84B5816084BDBA
:1017E00085B5826085BD85B5816085BD80916E00BF
:1017F000816080936E0010928100809181008260F0
:10180000809381008091810081608093810080912C
:1018100080008160809380008091B100846080931B
:10182000B1008091B00081608093B00080917A0017
:10183000846080937A0080917A00826080937A003D
:1018400080917A008E7F80937A0080917A00806800
:1018500080937A001092C10061E08AE00E942B021E
:101860000E94A00688E199E20FB6F894A8958093AB
:1018700060000FBE9093600061E089E00E942B023F
:1018800060E08FE00E942B0266E471E0CE010196D9
:101890000E94EA08CE0101960E94E20888EE93E0D9
:1018A000A0E0B0E08093FC049093FD04A093FE04BC
:1018B000B093FF040E94AA030E94A00628EE33E022
:1018C00040E050E02093FC043093FD044093FE047C
:1018D0005093FF04A89588E199E20FB6F894A89573
:1018E000809360000FBE9093600061E089E00E94E9
:1018F0009A016FE471E0CE0101960E94EA08CE01E0
:1019000001960E94E2088EEF93E00E942F158F3F10
:10191000980711F48CE494E02EE420937C00B090BE
:101920006400209164002E7F20936400A0907A00D0
:1019300020917A00206820937A0020917A00206418
:1019400020937A0020917A0026FDFCCF2FEF33E020
:10195000DC010E94B0162B013C010AE010E0C12C12
:10196000D12C760180917A00806480937A008091F6
:101970007A0086FDFCCF2091780030917900032E0B
:10198000000C440B550BC301B2010E949116C20E0C
:10199000D31EE41EF51E0150110921F7A0927A0012
:1019A000B0926400C701B6012AE030E040E050E0A8
:1019B0000E949116B901330F880B990B0E941214E3
:1019C0006093950370939603809397039093980385
:1019D000BAE0EB2EF12C10E6D12ECC24C39460E6B5
:1019E00071E0CE0101960E94EA08CE0101960E94A4
:1019F000E2080E945C026F83788789879A878091CA
:101A0000F6049091F704009711F00E94821386E08B
:101A100090E00E94E6128C01DC01DC92E8EFF4E039
:101A20001296FC93EE93119713961C92139720E253
:101A300030E015963C932E9314979093F70480937F
:101A4000F6040E94AA03D8011396CC92C8010E9402
:101A5000AA058B87882309F4B2C3198221E030E0FC
:101A6000AE014F5F5F4FBA018091F6049091F70489
:101A70000E9436078981853409F0A1C360E088E0BF
:101A80000E940E0760E089E00E940E0760E084E09B
:101A90000E940E0760E085E00E940E0760E086E08D
:101AA0000E940E0760E083E00E940E076FEF81E264
:101AB0000E940E0761E088E10E940E076AE070E074
:101AC00080E090E00E94810267E187E00E940E07BB
:101AD0006AE070E080E090E00E94810269E283E1C8
:101AE0000E940E0769E884E10E940E0762E085E12A
:101AF0000E940E0760E086E10E940E0761EB81E024
:101B00000E94CC0761E083E00E940E0761E084E060
:101B10000E940E0763E08FE00E940E0763E087E0FB
:101B20000E94CC0761E082E00E94CC0760E08BE07D
:101B30000E94CC0760E78AE00E94CC0764E28CE058
:101B40000E94CC0760E08EE00E94CC0760E08EE14E
:101B50000E94CC0760E78DE10E94CC0760E28FE134
:101B60000E94CC0760E081E10E94CC0760E780E141
:101B70000E94CC0760E282E10E94CC076FEF88E010
:101B80000E940E076FE088E10E940E0764E771E093
:101B9000CE0101960E94EA08CE0101960E94E20859
:101BA00010927F031092800310928103109282039F
:101BB000109283031092840310928503109286037F
:101BC00020E030E040EC5FE7209387033093880308
:101BD0004093890350938A0305E010E0C12CD12C77
:101BE0007601812C912C5401412C512C32016AE850
:101BF00071E0CE0101960E94EA08CE0101960E9492
:101C0000E20882E20E94B107480E591E611C711C55
:101C100084E20E94B107880E991EA11CB11C8CE2BF
:101C20000E94B107BC0190E080E00E9410149B016B
:101C3000AC01C701B6010E948C156B017C010150FB
:101C40001109A9F6C301B20125E030E040E050E0FF
:101C50000E946F1620937F0330938003409381038B
:101C600050938203C501B40125E030E040E050E02C
:101C70000E946F162093830330938403409385035F
:101C80005093860320E030E040EA50E4C701B601FB
:101C90000E94F815609387037093880380938903EB
:101CA00090938A0363E971E0CE0101960E94EA08ED
:101CB000CE0101960E94E20863EA71E0CE0101962E
:101CC0000E94EA08CE0101960E94E20864EB71E0EE
:101CD000CE0101960E94EA08CE0101960E94E20818
:101CE0000E945C022F81388549855A85621B730BDF
:101CF000840B950B60938B0370938C0380938D03FF
:101D000090938E036FEB71E0CE0101960E94EA087A
:101D1000CE0101960E94E20822242394312C0E94D5
:101D2000A0066CEC71E0CE0101960E94EA08CE019B
:101D300001960E94E2080E945C022B013C0148EFE0
:101D400054E05093D6044093D5040E94AA038EEF2A
:101D50000E94CF0580E090E0A0ECBFE7809399035C
:101D600090939A03A0939B03B0939C038093910359
:101D700090939203A0939303B093940369ED71E061
:101D8000CE0101960E94EA08CE0101960E94E20867
:101D900081E08093A70380E48093C9031092A80395
:101DA0001092CA0381E00E94BA04882309F420C279
:101DB00084E88093EE046DEE71E0CE0101960E94FE
:101DC000EA08CE0101960E94E20810E00E945C023F
:101DD000641975098609970960939D0370939E03A2
:101DE00080939F039093A00364EA72E0CE01019672
:101DF0000E94EA08CE0101960E94E2086BE872E0B8
:101E0000CE0101960E94EA08CE0101960E94E208E6
:101E1000111106C083E00E94B40273E0272E312C1A
:101E20000E94A00669E172E0CE0101960E94EA08D4
:101E3000CE0101960E94E2081FB7F89480917B03BF
:101E4000811127C0EEEAF0E08491EAE9F0E0949194
:101E5000E82FF0E0EE0FFF1FEA57FF4FA591B49176
:101E6000EC919E2321F461E08AE00E949A0161E0F6
:101E70008AE00E942B028CB580618CBD8CB5806499
:101E80008CBD61E08DE00E942B0261E08BE00E943E
:101E90002B0280917B038F5F80937B031FBF809118
:101EA000B7049091B8048F3F980709F499C2209124
:101EB000B9043091BA042F3F320709F491C2821756
:101EC000930741F061E00E942B0261E08091B90428
:101ED0000E942B0280E00E941B0281E00E94060209
:101EE00065E070E080E090E00E9481026FE584E0B0
:101EF0000E942A0885E590E0A0E0B0E08093CD0440
:101F00009093CE04A093CF04B093D00467E086E012
:101F10000E942A088DE10E944C08182F0E94D608C2
:101F20008DE10E944C0891E0181390E09093C70453
:101F3000882341F0181302C00E94D60860E08DE1AA
:101F40000E942A081092C90460E08CE10E942A08CD
:101F50001092CB046FE381E00E942A0863E082E0E4
:101F60000E942A0880E28093C00411E16091C004BD
:101F7000812F0E942A081F5F1731C1F763E083E0B9
:101F80000E942A0885E08093CA046CE40E942A0813
:101F900060E787E00E942A0882EE0E9417080E94EC
:101FA00024086CE080E00E942A0880E00E944C082F
:101FB0008093C6040E943D088091C6048E3009F0CB
:101FC0000FC26EE272E0CE0101960E94EA08CE01D5
:101FD00001960E94E20865E085E00E942A0886E0FA
:101FE0000E944C08682F676086E00E942A088DE1F5
:101FF0000E944C08682F64608DE10E942A088CE1E1
:102000000E944C08682F6F638CE10E942A0881E0CF
:102010008093CB046091CA048AE00E94BA08609160
:10202000CA0480E10E94BA0880E00E941B028091ED
:10203000CD049091CE048330910508F070C2809158
:10204000C90481110E9424086091C6046E7F6093C8
:10205000C60480E00E942A0882E00E944C08E8EB57
:10206000F0E0E49161E070E001C0660FEA95EAF704
:10207000682B82E00E942A086FE684E00E942A080A
:1020800011E010938F0310937D0360E772E0CE019F
:1020900001960E94EA08CE0101960E94E2086FE7CD
:1020A00072E0CE0101960E94EA08CE0101960E94DC
:1020B000E2081092900310937E030E943D086AE0AC
:1020C00070E080E090E00E9481020E945C029B85AB
:1020D000992351F16DE872E0CE0101960E94EA0861
:1020E000CE0101960E94E2088DE793E00E945E080F
:1020F0000E940B036B017C0187E10E944C0884FD68
:1021000024C28091BF0484FF10C260E187E00E9476
:102110002A0880E00E941B020E94240868EC70E0FC
:1021200080E090E00E9481028FE893E00E945E08C8
:102130000E94A0060E940B036B017C0187E10E94B4
:102140004C0884FD16C28091BF0484FF02C260E186
:1021500087E00E942A0880E00E941B0281E00E9422
:102160001B020E940B036C197D098E099F09603DBB
:1021700077408105910508F4ECC180E00E941B02C4
:102180000E94240810E00E945C020E94A006112315
:1021900009F4F4C160EB72E0CE0101960E94EA08F6
:1021A000CE0101960E94E20864EC72E0CE01019635
:1021B0000E94EA08CE0101960E94E20821C164E66D
:1021C00070E080E090E00E94810231E0E31AF108C3
:1021D00009F005CC82E00E94B40268EC70E080E077
:1021E00090E00E9481021B8692E0292E312C97CD2F
:1021F000A2E0B0E0B887AF8383EF0E94CF0566E42A
:1022000070E080E090E00E9481026AE5CE010196D4
:102210000E94AE0681117CC0F2E8F093EE0460915A
:10222000EB047091EC0490E080E00E94101422E531
:1022300038EB4FE25BE30E94711426E636E64BE38F
:1022400052E40E948B1560939103709392038093E4
:102250009303909394036091E9047091EA0490E0F1
:1022600080E00E94101420E030E04AEF5AE30E9420
:10227000711420E030E040EC50E40E948B15609334
:10228000990370939A0380939B0390939C0362E05D
:1022900072E0CE0101960E94EA08CE0101960E94EA
:1022A000E20869E072E0CE0101960E94EA08CE01E0
:1022B00001960E94E2088090910390909203A09072
:1022C0009303B09094032091770330917803409169
:1022D000790350917A03C501B4010E948B156B01FB
:1022E0007C0120E030E0A9010E946A1601E010E0C4
:1022F00018160CF049C020E030E040EA51E4C70174
:10230000B6010E940B1418160CF048C000E046C03D
:102310002A81898190E0982F8827820F911D8C7FD8
:102320009093EC048093EB0423702093ED0485EFED
:102330000E94CF056EE170E080E090E00E94810293
:102340006EE1CE0101960E94AE06882309F467CFA4
:102350002A81898190E0982F8827820F911D8C7F98
:102360009093EA048093E90423702093ED04109283
:10237000EE040E940B036093D8047093D9048093F9
:10238000DA049093DB044BCF20E030E040EA51ECDC
:10239000C701B6010E946A1687FDB8CFC8018092B6
:1023A000770390927803A0927903B0927A03892BF5
:1023B000A9F46FE072E0CE0101960E94EA08CE0116
:1023C00001960E94E2082F8138852130310509F4F9
:1023D000FCCCE1E0F0E0F887EF830ECF11E0F6CC23
:1023E0006DE472E0CE0101960E94EA08CE010196EA
:1023F0000E94E20884E00E94B40254E0252E312CB1
:1024000064E670E080E090E00E94810280E00E943B
:102410001B026091C6046D7F6093C60480E00E9439
:102420002A0860E089E00E949A01A8950FB6F89406
:10243000A895809160008861809360001092600090
:102440000FBE69EF72E0CE0101960E94EA08CE014C
:1024500001960E94E208E1E02E16310409F09FC0C7
:102460002BE4C22ED12CF12CE12C68E073E0CE01DC
:1024700001960E94EA08CE0101960E94E20821E03E
:1024800030E050E040E069E070E08CE793E00E94CB
:1024900017030E94A006C70187709927892BC1F4F2
:1024A00000910001109101010115110521F43092F4
:1024B000030120920201809102010E94B4021016D1
:1024C000110634F401501109109301010093000129
:1024D000FFEFEF1AFF0AEC14FD0439F66FE173E029
:1024E000CE0101960E94EA08CE0101960E94E20800
:1024F00088E199E20FB6F894A895809360000FBE2A
:102500009093600080E090E0892B09F4D5C90E9487
:102510005901882309F4D0C90E940000CDC9880F51
:10252000991F04970197F1F78ACD0E940B036C194C
:102530007D098E099F09603671058105910508F4B2
:10254000DBCD81E08093CC04E9CD80E00E941B02CA
:10255000E5CD0E940B036C197D098E099F0960333C
:1025600078408105910508F4E9CD81E08093CC04A1
:1025700009CE80E00E941B0211E005CE60ED72E002
:10258000CE0101960E94EA08CE0101960E94E2085F
:1025900085E00E94B40235E0232E312C31CF3092F9
:1025A00003012092020180E590E090930101809365
:1025B00000018AE0C82ED12C56CF8091F60490916C
:1025C000F704009711F00C94821308950F931F9352
:1025D000CF93DF938230910510F482E090E0E09198
:1025E0000E05F0910F0530E020E0B0E0A0E030975C
:1025F00099F42115310509F44AC0281B390B243000
:102600003105D8F58A819B816115710589F1FB013E
:1026100093838283FE0111C0408151810281138125
:1026200048175907E0F04817590799F4109761F0D7
:1026300012960C93129713961C933296CF01DF914A
:10264000CF911F910F91089500930E0510930F05E0
:10265000F4CF2115310551F04217530738F0A90185
:10266000DB019A01BD01DF01F801C1CFEF01F9CF14
:1026700090930F0580930E05CDCFFE01E20FF31F5F
:10268000819391932250310939832883D7CF2091A8
:102690000C0530910D05232B41F420911E01309142
:1026A0001F0130930D0520930C0520911C013091E2
:1026B0001D012115310541F42DB73EB74091200190
:1026C00050912101241B350BE0910C05F0910D0573
:1026D000E217F307A0F42E1B3F0B2817390778F0F9
:1026E000AC014E5F5F4F2417350748F04E0F5F1F58
:1026F00050930D0540930C05819391939FCFF0E08B
:10270000E0E09CCFCF93DF930097E9F0FC01329794
:1027100013821282A0910E05B0910F05ED0130E0F9
:1027200020E01097A1F420813181820F931F209126
:102730000C0530910D052817390709F061C0F09399
:102740000D05E0930C05DF91CF910895EA01CE17B6
:10275000DF07E8F54A815B819E0141155105B1F71C
:10276000E901FB83EA8349915991C40FD51FEC1706
:10277000FD0761F4808191810296840F951FE90124
:1027800099838883828193819B838A83F0E0E0E050
:1027900012968D919C9113970097B9F52D913C91CC
:1027A0001197CD010296820F931F20910C05309155
:1027B0000D052817390739F6309751F510920F0596
:1027C00010920E05B0930D05A0930C05BCCFD383DA
:1027D000C28340815181840F951FC817D90761F4C6
:1027E0004E5F5F4F88819981480F591F5183408305
:1027F0008A819B81938382832115310509F0B0CFB3
:10280000F0930F05E0930E059ECFFD01DC01C0CFD4
:1028100013821282D7CF0E944D1408F481E00895EC
:10282000E89409C097FB3EF490958095709561956A
:102830007F4F8F4F9F4F9923A9F0F92F96E9BB2720
:102840009395F695879577956795B795F111F8CF9C
:10285000FAF4BB0F11F460FF1BC06F5F7F4F8F4F07
:102860009F4F16C0882311F096E911C0772321F0FD
:102870009EE8872F762F05C0662371F096E8862F95
:1028800070E060E02AF09A95660F771F881FDAF7EC
:10289000880F9695879597F90895990F0008550F19
:1028A000AA0BE0E8FEEF16161706E807F907C0F0D6
:1028B00012161306E407F50798F0621B730B840BDE
:1028C000950B39F40A2661F0232B242B252B21F4B8
:1028D00008950A2609F4A140A6958FEF811D811D58
:1028E00008950E9484140C94F5140E94E71438F0A3
:1028F0000E94EE1420F0952311F00C94DE140C9439
:10290000E41411240C9429150E94061570F3959F68
:10291000C1F3950F50E0551F629FF001729FBB27D6
:10292000F00DB11D639FAA27F00DB11DAA1F649F72
:102930006627B00DA11D661F829F2227B00DA11D25
:10294000621F739FB00DA11D621F839FA00D611DAB
:10295000221F749F3327A00D611D231F849F600DCC
:10296000211D822F762F6A2F11249F5750409AF0F5
:10297000F1F088234AF0EE0FFF1FBB1F661F771F81
:10298000881F91505040A9F79E3F510580F00C944C
:10299000DE140C9429155F3FE4F3983ED4F386953A
:1029A00077956795B795F795E7959F5FC1F7FE2BEC
:1029B000880F911D9695879597F9089597F99F67C8
:1029C00080E870E060E008959FEF80EC08950024B7
:1029D0000A941616170618060906089500240A9484
:1029E00012161306140605060895092E0394000C0A
:1029F00011F4882352F0BB0F40F4BF2B11F460FF99
:102A000004C06F5F7F4F8F4F9F4F089557FD9058C1
:102A1000440F551F59F05F3F71F04795880F97FBA2
:102A2000991F61F09F3F79F087950895121613065C
:102A30001406551FF2CF4695F1DF08C0161617068B
:102A40001806991FF1CF86957105610508940895C0
:102A5000E894BB2766277727CB0197F90895A8E16B
:102A6000B0E042E050E00C943715DC01CB01FC01F2
:102A7000F999FECF06C0F2BDE1BDF89A319600B4D7
:102A80000D9241505040B8F708952F923F924F92C7
:102A90005F926F927F928F929F92AF92BF92CF92EE
:102AA000DF92EF92FF920F931F93CF93DF93CDB7F7
:102AB000DEB7CA1BDB0B0FB6F894DEBF0FBECDBF6F
:102AC00009942A88398848885F846E847D848C8440
:102AD0009B84AA84B984C884DF80EE80FD800C8149
:102AE0001B81AA81B981CE0FD11D0FB6F894DEBF2C
:102AF0000FBECDBFED010895A29FB001B39FC001ED
:102B0000A39F700D811D1124911DB29F700D811D19
:102B10001124911D08955058BB27AA270E94A31580
:102B20000C94F5140E94E71438F00E94EE1420F083
:102B300039F49F3F19F426F40C94E4140EF4E09554
:102B4000E7FB0C94DE14E92F0E94061558F3BA1720
:102B5000620773078407950720F079F4A6F50C94B3
:102B600028150EF4E0950B2EBA2FA02D0B01B901FC
:102B700090010C01CA01A0011124FF27591B99F0F3
:102B8000593F50F4503E68F11A16F040A22F232FFF
:102B9000342F4427585FF3CF469537952795A7954F
:102BA000F0405395C9F77EF41F16BA0B620B730BF6
:102BB000840BBAF09150A1F0FF0FBB1F661F771F67
:102BC000881FC2F70EC0BA0F621F731F841F48F41C
:102BD000879577956795B795F7959E3F08F0B0CFA5
:102BE0009395880F08F09927EE0F9795879508958C
:102BF0000E940C160C94F5140E94EE1458F00E94DA
:102C0000E71440F029F45F3F29F00C94DE145111D1
:102C10000C9429150C94E4140E94061568F399236A
:102C2000B1F3552391F3951B550BBB27AA276217C8
:102C30007307840738F09F5F5F4F220F331F441FD5
:102C4000AA1FA9F335D00E2E3AF0E0E832D0915009
:102C50005040E695001CCAF72BD0FE2F29D0660FF6
:102C6000771F881FBB1F261737074807AB07B0E839
:102C700009F0BB0B802DBF01FF2793585F4F3AF03F
:102C80009E3F510578F00C94DE140C9429155F3F9B
:102C9000E4F3983ED4F3869577956795B795F795C5
:102CA0009F5FC9F7880F911D9695879597F90895AD
:102CB000E1E0660F771F881FBB1F62177307840749
:102CC000BA0720F0621B730B840BBA0BEE1F88F758
:102CD000E09508950E944D1408F48FEF0895A1E245
:102CE0001A2EAA1BBB1BFD010DC0AA1FBB1FEE1F86
:102CF000FF1FA217B307E407F50720F0A21BB30BD1
:102D0000E40BF50B661F771F881F991F1A9469F74C
:102D100060957095809590959B01AC01BD01CF01A8
:102D20000895052E97FB1EF400940E94A81657FDE7
:102D300007D00E946F1607FC03D04EF40C94A8161F
:102D400050954095309521953F4F4F4F5F4F0895D7
:102D500090958095709561957F4F8F4F9F4F089507
:102D60000E947C15B7FF0895821B930B0895EE0F08
:102D7000FF1F0590F491E02D0994B0E0A0E0E3EC92
:102D8000F6E10C9447158C01009751F4CB010E9499
:102D9000E6128C01C801CDB7DEB7E0E10C946315F3
:102DA000FC01E60FF71F9C0122503109E217F307DF
:102DB00008F49DC0D901CD91DC911197C617D707B2
:102DC00098F0C530D10530F3CE01049786179707E8
:102DD00008F3C61BD70B2297C193D1936D937C93B5
:102DE000CF010E948213D6CF5B01AC1ABD0A4C0101
:102DF0008C0E9D1EA0910E05B0910F05512C412CFB
:102E0000F12CE12C109731F580910C0590910D0576
:102E10008815990509F05CC04616570608F058C099
:102E200080911C0190911D01009741F48DB79EB7D0
:102E30004091200150912101841B950BE817F9075F
:102E400008F055C0F0930D05E0930C05F90171836E
:102E50006083A0CF8D919C91119712966C901297E0
:102E600013967C901397A815B90559F56C0142E0AB
:102E7000C40ED11CCA14DB0420F1AC014A195B0951
:102E8000DA011296159780F0628273825183408333
:102E9000D9016D937C93E114F10471F0D70113967D
:102EA000FC93EE93129776CF22968C0F9D1FF9011B
:102EB00091838083F301EFCFF0930F05E0930E052C
:102EC00069CF4816590608F42C017D01D3019ACF29
:102ED000CB010E94E6127C01009749F0AE01B801D7
:102EE0000E947A17C8010E948213870153CF10E015
:102EF00000E050CFFB01DC0102C001900D92415077
:102F00005040D8F70895FB01DC0101900D9200209C
:102F1000E1F7089510E0C0E6D0E004C0FE010E9491
:102F2000B7162196C136D107C9F7F894FFCF5000E4
:102F30000100324E6F646500334E6F646500344E9D
:102F40006F646500354E6F646500000010058000F9
:102F500000000000EC006D018D003901BE009C00F6
:102F6000B0000000000067063A0696061006330619
:102F70002006110652656164792E2E2E005265617D
:102F800064696E6720766F6C7461676520005265B6
:102F90006164696E6720534931313435207465733B
:102FA0007400534931313435202D20696E697469BC
:102FB000616C697A65643300726561646F75742051
:102FC00000416D6269656E74204C696768743A20CF
:102FD00000496E667261726564204C696768743A74
:102FE0002000555620496E6465783A20005265618C
:102FF000646F7574206D733A200052656164696E68
:10300000672074656D700052656164696E67207435
:10301000656D7065726174757265005348542069FE
:1030200073206E6F7420636F6E6E656374656400E9
:1030300054656D703A200048756D3A2000526574F1
:10304000726965733A200053656E64696E67205239
:103050006164696F207061636B6574002B2B2B2B8F
:103060002B2B2B2B2B2B2B2B20526164696F206970
:103070006E697469616C697A656400726164696F14
:10308000206861726477617265206973206E6F7465
:1030900020726573706F6E64696E672121005061E4
:1030A000796C6F61642073697A653A200053493105
:1030B0003134352073697A653A200073656E64692E
:1030C0006E6720736931313435207061636B6574CC
:1030D000202D20726561646F75746D733A005469B8
:1030E0006D6520746F207472616E736D6974203D1C
:1030F00020002075732E2053656E743A20005472A0
:10310000616E736D697373696F6E206661696C655A
:1031100064206F722074696D6564206F7574202D52
:10312000206669666F3A005374617274696E672035
:10313000736C65657000656E746572696E67206199
:10314000726475696E6F20736C65657000456E649E
:0831500020736C65657000003E
:107800000C94343C0C94513C0C94513C0C94513CE1
:107810000C94513C0C94513C0C94513C0C94513CB4
:107820000C94513C0C94513C0C94513C0C94513CA4
:107830000C94513C0C94513C0C94513C0C94513C94
:107840000C94513C0C94513C0C94513C0C94513C84
:107850000C94513C0C94513C0C94513C0C94513C74
:107860000C94513C0C94513C11241FBECFEFD8E036
:10787000DEBFCDBF11E0A0E0B1E0EAE8FFE702C063
:1078800005900D92A230B107D9F712E0A2E0B1E065
:1078900001C01D92AD30B107E1F70E942D3D0C945F
:1078A000C33F0C94003C982F95959595959595958B
:1078B000905D8F708A307CF0282F295A8091C0000B
:1078C00085FFFCCF9093C6008091C00085FFFCCF60
:1078D0002093C6000895282F205DF0CF982F809127
:1078E000C00085FFFCCF9093C6000895EF92FF92F1
:1078F0000F931F93EE24FF2487018091C00087FD22
:1079000017C00894E11CF11C011D111D81E2E8164D
:1079100081EAF80687E0080780E0180770F3E09135
:107920000401F091050109958091C00087FFE9CF1E
:107930008091C6001F910F91FF90EF9008950E94D3
:10794000763C982F8091C00085FFFCCF9093C600B5
:1079500091362CF490330CF09053892F089597555D
:10796000892F08951F930E949F3C182F0E949F3CCF
:107970001295107F810F1F9108951F93182F882350
:1079800021F00E94763C1150E1F71F9108951F935A
:10799000182F0E94763C803249F0809103018F5F5E
:1079A000809303018530C1F01F9108958091C0003C
:1079B00085FFFCCF84E18093C6008091C00085FFE5
:1079C000FCCF1093C6008091C00085FFFCCF80E102
:1079D0008093C6001F910895E0910401F091050184
:1079E00009951F9108950E94763C803241F0809164
:1079F00003018F5F80930301853081F008958091AA
:107A0000C00085FFFCCF84E18093C6008091C00058
:107A100085FFFCCF80E18093C6000895E0910401CA
:107A2000F09105010995089548EC50E08823A1F0F4
:107A30002D9A28EE33E0FA013197F1F721503040CA
:107A4000D1F72D9828EE33E0FA013197F1F7215064
:107A50003040D1F7815061F708953F924F925F9285
:107A60006F927F928F929F92AF92BF92CF92DF924E
:107A7000EF92FF920F931F93CF93DF93000082E06A
:107A80008093C00080E18093C4001092C50088E11B
:107A90008093C10086E08093C2005098589A259A3E
:107AA00081E00E94143D24E1F22E9EE1E92E85E959
:107AB000D82E0FE0C02E10E1B12EAA24A394B1E479
:107AC0009B2EA6E58A2EF2E57F2EE0E26E2E79E46B
:107AD000572E63E5462E50E5352E0E94763C8033C6
:107AE000B1F18133B9F1803409F46FC0813409F404
:107AF00076C0823409F485C0853409F488C08035A5
:107B000031F1823521F1813511F1853509F485C0D6
:107B1000863509F48DC0843609F496C0843709F49B
:107B200003C1853709F472C1863709F466C08091B4
:107B300003018F5F80930301853079F6E0910401A2
:107B4000F091050109950E94763C803351F60E9420
:107B5000F33CC3CF0E94763C803249F78091C0004D
:107B600085FFFCCFF092C6008091C00085FFFCCF5E
:107B70009092C6008091C00085FFFCCF8092C60025
:107B80008091C00085FFFCCF7092C6008091C0003C
:107B900085FFFCCF6092C6008091C00085FFFCCFBE
:107BA0005092C6008091C00085FFFCCF4092C60075
:107BB0008091C00085FFFCCF3092C6008091C0004C
:107BC00085FFFCCFB092C60088CF0E94763C8638F5
:107BD00008F4BDCF0E94763C0E94F33C7ECF0E9409
:107BE000763C803809F49CC0813809F40BC1823896
:107BF00009F430C1883909F48FC080E00E94C73C85
:107C00006CCF84E10E94BD3C0E94F33C66CF85E0CE
:107C10000E94BD3C0E94F33C60CF0E94763C809362
:107C200006010E94763C809307010E94F33C55CFE9
:107C30000E94763C803309F411C183E00E94BD3C70
:107C400080E00E94C73C49CF0E94763C80930902A5
:107C50000E94763C8093080280910C028E7F809374
:107C60000C020E94763C853409F409C18091080217
:107C700090910902892B89F000E010E00E94763C87
:107C8000F801E85FFE4F80830F5F1F4F809108026D
:107C9000909109020817190788F30E94763C8032F8
:107CA00009F045CF80910C0280FFF5C0609106017C
:107CB00070910701660F771F7093070160930601AB
:107CC000A0910802B09109021097C9F0E8E0F1E034
:107CD0009B01AD014E0F5F1FF999FECF32BD21BD53
:107CE000819180BDFA9AF99A2F5F3F4FE417F5070B
:107CF00099F76A0F7B1F70930701609306018091CB
:107D0000C00085FFFCCFF092C6008091C00085FFC7
:107D1000FCCFB092C600E1CE83E00E94C73CDDCE2E
:107D200082E00E94C73CD9CE0E94763C8093090233
:107D30000E94763C80930802809106019091070191
:107D4000880F991F90930701809306010E94763C4B
:107D5000853409F49AC080910C028E7F80930C02C6
:107D60000E94763C803209F0B8CE8091C00085FF39
:107D7000FCCFF092C600A0910802B09109021097C2
:107D8000C1F180910C02082F0170182F1695117007
:107D9000E0910601F0910701AF014F5F5F4FBA011B
:107DA00020E030E00023B1F4112339F49491809164
:107DB000C00085FFFCCF9093C6002F5F3F4FCB01E3
:107DC0000196FA012A173B0780F4BC014F5F5F4F11
:107DD000002351F3F999FECFF2BDE1BDF89A90B5B9
:107DE0008091C00085FFFCCFE6CF709307016093C0
:107DF00006018091C00085FDE5CE8091C00085FF21
:107E0000F8CFE0CE81E00E94C73C67CE0E94763C6E
:107E1000803209F08CCE8091C00085FFFCCFF092BB
:107E2000C6008091C00085FFFCCFE092C600809123
:107E3000C00085FFFCCFD092C6008091C00085FFB6
:107E4000FCCFC092C6008091C00085FFFCCFB092ED
:107E5000C60043CE80E10E94C73C3FCE0E94763CE4
:107E60000E94763C182F0E94763C112309F483C0AF
:107E7000113009F484C08FE00E94C73C2ECE80915F
:107E80000C02816080930C02F1CE80910C02816023
:107E900080930C0265CF809107018823880F880B9F
:107EA0008A2180930B028091060190910701880F2F
:107EB000991F90930701809306018091080280FF2B
:107EC00009C08091080290910902019690930902DD
:107ED00080930802F894F999FECF1127E0910601EA
:107EE000F0910701C8E0D1E0809108029091090269
:107EF000103091F40091570001700130D9F303E084
:107F000000935700E8950091570001700130D9F3B4
:107F100001E100935700E8950990199000915700EE
:107F200001700130D9F301E000935700E8951395F3
:107F3000103498F011270091570001700130D9F3E7
:107F400005E000935700E89500915700017001305B
:107F5000D9F301E100935700E8953296029709F0B2
:107F6000C7CF103011F00296E5CF11248091C000E8
:107F700085FFC5CEC8CE8EE10E94C73CAECD85E957
:0C7F80000E94C73CAACDF894FFCF8000FF
:00000001FF
