:1000000023C032C015C130C02FC0C8C02DC02CC005
:100010002BC02AC029C028C01AC126C025C0000094
:100020000000370000000000380002020202020255
:10003000020202020102040810202004100801023A
:10004000000004000000000011241FBECFE5D2E034
:10005000DEBFCDBF20E0A0E6B0E001C01D92AA3611
:10006000B207E1F7FED087C1CBCFE2E4F0E0249104
:10007000E8E3F0E09491EEE2F0E0E491EE23C1F0E9
:10008000222329F0223009F1A0F42130D1F0F0E050
:10009000EE0FFF1FEC5DFF4FA591B4912FB7F894C1
:1000A000811116C08C91E92FE095E823EC932FBFC6
:1000B0000895233011F0243051F72CB52F7D2CBD3D
:1000C000E6CF2AB52F772ABDE2CF2AB52F7DFBCF09
:1000D000EC91E92BEBCF3FB7F894809165009091BC
:1000E0006600A0916700B091680022B708B601FED3
:1000F00005C02F3F19F00196A11DB11D3FBFBA2FBA
:10010000A92F982F8827BC01CD01620F711D811D79
:10011000911D46E0660F771F881F991F4A95D1F7FA
:1001200008958F929F92AF92BF92CF92DF92EF92FB
:10013000FF9281E09ADFCFDF4B015C0188EEC82E91
:1001400083E0D82EE12CF12CC6DF681979098A09E1
:100150009B09683E734081059105B0F321E0C21A06
:10016000D108E108F10888EE880E83E0981EA11CF2
:10017000B11CC114D104E104F10431F780E0FF9017
:10018000EF90DF90CF90BF90AF909F908F906DCF0A
:1001900081E281BD81B5886081BD08951F920F9273
:1001A0000FB60F9211242F933F938F939F93AF938A
:1001B000BF938091610090916200A0916300B09123
:1001C00064003091600020E3230F2D3758F54096EE
:1001D000A11DB11D20936000809361009093620087
:1001E000A0936300B09364008091650090916600D5
:1001F000A0916700B09168000196A11DB11D809388
:10020000650090936600A0936700B0936800BF916B
:10021000AF919F918F913F912F910F900FBE0F90B3
:100220001F90189523EB230F4196A11DB11DD2CF2E
:100230001F920F920FB60F9211248F9381E080933B
:1002400069008F910F900FBE0F901F9018951F920D
:100250000F920FB60F9211240F900FBE0F901F90A8
:10026000189578948AB582608ABD8AB581608ABD06
:1002700083B7826083BF83B7816083BF89B78260A1
:1002800089BF80B7826080BF3298319A309A379A9E
:100290008CB580648CBD84B714BE7ADFE8E3F0E0EF
:1002A0002491EEE2F0E08491882399F090E0880FA9
:1002B000991FFC01E25EFF4FA591B491FC01EC5D3A
:1002C000FF4F859194918FB7F894EC91E22BEC93CA
:1002D0008FBFF894A99A8BB780628BBFE5E3F0E0FB
:1002E0002491EBE2F0E084918823C1F090E0880F44
:1002F000991FFC01E25EFF4FC591D491FC01EC5DBA
:10030000FF4FA591B4919FB7F8943881822F8095C3
:1003100083238883EC91E22BEC939FBF789401DFD9
:10032000A895C0E0D0E01092690032DFA895379818
:100330002FDFA89585B7877E806185BF85B78062EE
:1003400085BF889585B78F7D85BFA89585B7877E42
:10035000806185BF85B7806285BF889585B78F7DB1
:1003600085BF379A80916900811101C0DADE20973C
:0A037000D1F246DED8CFF894FFCF9B
:00000001FF
